:03000000020006F5
:10005F00750801750942750A00750B00750C00755E
:0E006F000D00750E00750F00751000020003E5
:03000300020253A3
:10007D00AE82AF83EE4F601B7C467D00EC24FFFA11
:10008D00ED34FFFB8A048B05EA4B70F01EBEFF01B9
:10009D001F80E122758920758DFD758BFDD28ED265
:1000AD009CC29FD29ED2AFD2AC22AF82C2ACC299BB
:1000BD008F9910990280FBD2AC22AE82AF837C0067
:1000CD007D00C3EC9EED9F5008000CBC00F40D802C
:1000DD00F122AF827E00EF30E004D2838002C28332
:1000ED00EFC313FF0000C28490000AC007C00612C0
:1000FD0000C7D2849000031200C7D006D0070EEEC1
:10010D0024F850D2D28322AF827E017D007C00EF95
:10011D0030E004D2838002C283EFC313FF0000C21C
:10012D008490000AC007C006C005C0041200C7D0E5
:10013D0004D005D006D007308203EE2DFD8E03EBE3
:10014D002BFED284900003C007C006C005C0041268
:10015D0000C7D004D005D006D0070CEC24F850AF62
:10016D00D2838D8222C2817F00EF2411F9EF240802
:10017D00F88682C007C001120114E582D001D007B4
:10018D00F70FBF090040E2D2817F00758230C007B2
:10019D001200B77582781200B7D007EF2411F987D6
:1001AD00067D00751A108D1B8E828D83C00712037C
:1001BD0015AD82AE83D007C3ED940AEE64809480B2
:1001CD0050108D0474302CF582C0071200B7D00783
:1001DD00800C74372DF582C0071200B7D007EF24BD
:1001ED0011F987067D00751A108D1B8E828D83C0C7
:1001FD00071202DFAD82AE83D007C3ED940AEE6421
:10020D0080948050108D0474302CF582C00712003C
:10021D00B7D007800C74372DF582C0071200B7D008
:10022D0007758220C0071200B77582201200B7D063
:10023D00070FBF0900500302019875820D1200B718
:10024D0075820A0200B79001F412007DC287120078
:0C025D00A11201729001F412007D80F5E6
:06003500E478FFF6D8FD9F
:100013007900E94400601B7A00900351780175A0D0
:1000230000E493F2A308B8000205A0D9F4DAF2754C
:02003300A0FF2C
:10026900E51A451B60467A01E51A25E0F51AE51BF2
:10027900334012F51BE582951AE583951B40030A65
:1002890080E6C3E51B13F51BE51A13F51AC3E582CE
:10029900951AF5F0E583951B4005F58385F082C332
:0D02A900E51B13F51BE51A13F51ADAE12227
:10003B007800E84400600A790175A000E4F309D860
:10004B00FC7800E84400600C7900900001E4F0A318
:04005B00D8FCD9FAFA
:1002B6007A10E4FBFCE58225E0F582E58333F583DD
:1002C600EB33FBEC33FCEB951AF5F0EC951B400693
:0902D600FCABF0438201DADD22E9
:0D00060075811B12034DE5826003020003AB
:1002DF00C2D5E58330E70DD2D5E4C39582F582E42C
:1002EF009583F583E51B30E70BE4C3951AF51AE404
:1002FF00951BF51B12026930D50BE4C39582F5826D
:10030F00E49583F58322C2D5E58330E70DD2D5E49A
:10031F00C39582F582E49583F583E51B30E70DB233
:10032F00D5E4C3951AF51AE4951BF51B1202B630E6
:10033F00D50BE4C39582F582E49583F5832275820C
:02034F0000228A
:00000001FF
