:03000000020006F5
:10005F00750801750942750A00750B00750C00755E
:0E006F000D00750E00750F00751000020003E5
:0300030002023DB9
:10007D00AE82AF83EE4F601B7C467D00EC24FFFA11
:10008D00ED34FFFB8A048B05EA4B70F01EBEFF01B9
:10009D001F80E122758920758DFD758BFDD28ED265
:1000AD009CC29FD29ED2AFD2AC22AF82C2ACC299BB
:1000BD008F9910990280FBD2AC22AE82AF837C0067
:1000CD007D00C3EC9EED9F5008000CBC00F40D802C
:1000DD00F122AF827E00EF30E004D2918002C29116
:1000ED00EFC313FF0000C293900003C007C00612B8
:1000FD0000C7D2939000011200C7D006D0070EEEB4
:10010D0024F850D2D29122AF827E017D007C00EF87
:10011D0030E004D2918002C291EFC313FF0000C200
:10012D0093309003EE2DFD8E03EB2BFED2939000BA
:10013D0003C007C006C005C0041200C7D004D00517
:10014D00D006D0070CEC24F850C5D2918D8222C276
:10015D00927F00EF2411F9EF2408F88682C007C0C2
:10016D0001120114E582D001D007F70FBF0900403D
:10017D00E2D2927F00758230C0071200B775827887
:10018D001200B7D007EF2411F987067D00751A10FC
:10019D008D1B8E828D83C00712036CAD82AE83D012
:1001AD0007C3ED940AEE6480948050108D04743072
:1001BD002CF582C0071200B7D007800C74372DF5CF
:1001CD0082C0071200B7D007EF2411F987067D0012
:1001DD00751A108D1B8E828D83C007120336AD826A
:1001ED00AE83D007C3ED940AEE6480948050108DD9
:1001FD000474302CF582C0071200B7D007800C7440
:10020D00372DF582C0071200B7D007758220C007C1
:10021D001200B77582201200B7D0070FBF0900502A
:10022D000302018275820D1200B775820A0200B7B2
:10023D009001F412007DC2801200A112015CAF1476
:10024D00BF7F02801FBFBF028011BFDF02801EBFB4
:10025D00EF22B2808F821200B78019B2818F821285
:10026D0000B78010B2828F821200B78007B2838FE1
:10027D00821200B7AF15BF7F02801FBFBF02801172
:10028D00BFDF02801EBFEF22B2848F821200B780C3
:10029D0019B2858F821200B78010B2868F8212003C
:1002AD00B78007B2878F821200B79000C812007D09
:0302BD00020248F2
:06003500E478FFF6D8FD9F
:100013007900E94400601B7A009003A8780175A079
:1000230000E493F2A308B8000205A0D9F4DAF2754C
:02003300A0FF2C
:1002C000E51A451B60467A01E51A25E0F51AE51B9B
:1002D000334012F51BE582951AE583951B40030A0E
:1002E00080E6C3E51B13F51BE51A13F51AC3E58277
:1002F000951AF5F0E583951B4005F58385F082C3DB
:0D030000E51B13F51BE51A13F51ADAE122CF
:10003B007800E84400600A790175A000E4F309D860
:10004B00FC7800E84400600C7900900001E4F0A318
:04005B00D8FCD9FAFA
:10030D007A10E4FBFCE58225E0F582E58333F58385
:10031D00EB33FBEC33FCEB951AF5F0EC951B40063B
:09032D00FCABF0438201DADD2291
:0D00060075811B1203A4E582600302000354
:10033600C2D5E58330E70DD2D5E4C39582F582E4D4
:100346009583F583E51B30E70BE4C3951AF51AE4AC
:10035600951BF51B1202C030D50BE4C39582F582BE
:10036600E49583F58322C2D5E58330E70DD2D5E443
:10037600C39582F582E49583F583E51B30E70DB2DC
:10038600D5E4C3951AF51AE4951BF51B12030D3037
:10039600D50BE4C39582F582E49583F583227582B5
:0203A600002233
:00000001FF
