:03000000020006F5
:03005F0002000399
:0300030002009761
:2000620085820885830990000A1200ABAE82AF837C007D28EE4F601C8C028D03EA4B700602
:200082008A048B0580071ABAFF011B80EF1EBEFF011F80E0227580009003E8120062758005
:0900A200FF9003E812006280ECFB
:06003500E478FFF6D8FD9F
:200013007900E94400601B7A009000CC780175A000E493F2A308B8000205A0D9F4DAF275C7
:02003300A0FF2C
:1D00AB00E5828508F0A4C582C0F08509F0A4D0F025F0C5838508F0A42583F5832217
:20003B007800E84400600A790175A000E4F309D8FC7800E84400600C7900900001E4F0A3C3
:04005B00D8FCD9FAFA
:0D0006007581091200C8E582600302000345
:0400C800758200221B
:00000001FF
