:03000000020006F5
:03005F0002000399
:0300030002008B6D
:20006200AE82AF837C007D28EE4F601C8C028D03EA4B70068A048B0580071ABAFF011B8065
:1D008200EF1EBEFF011F80E0227580009003E81200627580FF9003E812006280ECC2
:06003500E478FFF6D8FD9F
:200013007900E94400601B7A009000A3780175A000E493F2A308B8000205A0D9F4DAF275F0
:02003300A0FF2C
:20003B007800E84400600A790175A000E4F309D8FC7800E84400600C7900900001E4F0A3C3
:04005B00D8FCD9FAFA
:0D00060075810712009FE582600302000370
:04009F007582002244
:00000001FF
