:03000000020006F5
:03005F0002000399
:0300030002008672
:20006200AE82AF83EE4F601B7C647D00EC24FFFAED34FFFB8A048B05EA4B70F01EBEFF0154
:160082001F80E122C2809001F4120062D2809001F412006280EED2
:06003500E478FFF6D8FD9F
:200013007900E94400601B7A0090009C780175A000E493F2A308B8000205A0D9F4DAF275F7
:02003300A0FF2C
:20003B007800E84400600A790175A000E4F309D8FC7800E84400600C7900900001E4F0A3C3
:04005B00D8FCD9FAFA
:0D000600758107120098E582600302000377
:04009800758200224B
:00000001FF
