:0400000002001132B7
:03000B0002008B65
:08006A00E4F508F50902000E9F
:03000E0002008667
:10007200D2AFD2A9D28CAE894306018E89758C4B40
:10008200758AEC2212007280FEC0E0C0D00508E43E
:10009200B508020509758C4B758AECC3E508941402
:1000A200E50994004007B280E4F508F509D0D0D004
:0200B200E0323A
:06004000E478FFF6D8FD94
:10001E007900E94400601B7A009000B8780175A061
:10002E0000E493F2A308B8000205A0D9F4DAF27541
:02003E00A0FF21
:100046007800E84400600A790175A000E4F309D855
:10005600FC7800E84400600C7900900001E4F0A30D
:04006600D8FCD9FAEF
:0D0011007581091200B4E582600302000E43
:0400B400758200222F
:00000001FF
