:0600000002000902045396
:0300620002000693
:030006000203D919
:10006500AE82AF83EE4F601B7C947D00EC24FFFADB
:10007500ED34FFFB8A048B05EA4B70F01EBEFF01D1
:100085001F80E12285820885830985F00AF50B85A5
:10009500080C85090D850A0E850B0FAA0EE50F3391
:1000A50095E030E744850882850983850AF0E50BEC
:1000B50012065812068CAC82AD83AEF0FFE4C0E0A8
:1000C500C0E07480C0E0743FC0E08C828D838EF008
:1000D500EF1204F0AC82AD83AEF0FFE58124FCF5B0
:1000E500818C828D838EF0EF228508828509838538
:1000F5000AF0E50B12065802068C000000000022EB
:10010500D2941200FFD2950200FFD2941200FFD2C2
:10011500951200FFC2941200FFC2950200FFC2941F
:100125001200FFD2951200FFD2940200FFD2951261
:1001350000FF7F00D294309408BFFF0050030F806A
:10014500F3C2950200FFAF827E008F05ED2DFFC241
:1001550095C007C0061200FFA2D792941200FFD2E5
:10016500951200FFD006D0070EBE080040DCC295F0
:100175001200FFD2940200FF7F00C295C007120053
:10018500FFD2941200FFD0077E00BE08005025C0A4
:1001950007C0061200FFD2951200FFD006D0073027
:1001A50094047D0180027D008F04EC2CFC4DFFC280
:1001B500950E80D6C0071200FFD0078F8222AF822E
:1001C500C00712010F75828012014B120132D00750
:1001D5008F8212014B12013285108212014B1201DE
:1001E50032020123AF82C00712010F75828012010E
:1001F5004B120132D0078F8212014B1201321201CC
:100205000F75828112014B12013212017DAF82C03E
:1002150007120123D0078F82227510007582000214
:1002250001C302021EAC82AD83AEF0FFC004C0055F
:10023500C006C00790851F75F06B743F1204FBACB8
:1002450082AD83AEF0FFE58124FCF581C004C005D5
:10025500C006C00790BC2075F0BE744512070DACF2
:1002650082AD83AEF0FFE58124FCF581E4C0E0C0FA
:10027500E07480C0E0743FC0E08C828D838EF0EF27
:100285001204F0AC82AD83AEF0FFE58124FCF5816C
:10029500E4C0E0C0E0C0E0743FC0E08C828D838E96
:1002A500F0EF1205FFAC82AD83AEF0FFE58124FCD3
:1002B500F5818C828D838EF0EF120089120699AE3E
:1002C50082AF83758200C007C0061201E9AD827C4A
:1002D50000747F5DFA4302108A10758200C005C064
:1002E500041201C3D004D005D006D0078E10758244
:1002F500FEC005C0041201C3D004D0058D1075825F
:1003050000C005C0041201C3900002120065D004AC
:10031500D0054305A18D107582000201C3AF82850A
:100325001182C0071207D0AB82AC83ADF0FEC003CB
:10033500C004C005C00690A2B475F0117440120443
:10034500FBAB82AC83ADF0FEE58124FCF58174CD79
:10035500C0E014C0E0C0E07442C0E08B828C838DA5
:10036500F0EE1205FFAB82AC83ADF0FEE58124FC17
:10037500F5818B828C838DF0EE120699AD82AE836A
:10038500D007EF2F25E0FF2406F582751000C00782
:10039500C006C0051201C3D005D006D00774072FCB
:1003A500F582751000C007C006C0051201C3D0054F
:1003B500D006D00774082FF5828D10C007C006C07F
:1003C500051201C3D005D006D00774092FF5828E1A
:1003D500100201C3D2AFD2A8C288120105120227AA
:1003E50090000075F048744212022A90000A12002B
:1003F5006520B22EB2807E007F00C3EE94B4EF6418
:10040500809480501D8E11758201C007C0061203AD
:100415002290000A120065D006D0070EBE00DB0F41
:1004250080D820B30BB281751100758201120322A9
:1004350020B40BB28275115A75820112032220B5C0
:10044500AAB2837511B0758201120322809DC02066
:10045500C0E0C0F0C082C083C007C006C005C004AC
:10046500C003C002C001C000C0D075D00090000A12
:1004750012006520B22EB2807E007F00C3EE94B4D8
:10048500EF64809480501D8E11758201C007C006EF
:1004950012032290000A120065D006D0070EBE0096
:1004A500DB0F80D820B30BB2817511007582011264
:1004B500032220B40BB28275115A758201120322F0
:1004C50020B50BB2837511B3758201120322D0D00A
:1004D500D000D001D002D003D004D005D006D0077B
:1004E500D083D082D0F0D0E0D02032A8811818C6B1
:1004F500B2E7C60205FF12059EBC00030206C5EF62
:1005050060FA30D502B2D1E583B4FF030206DBE51C
:1005150082B4FF030206DB258340072482400B02D9
:1005250006C524831450030206DBF582EA8DF0A488
:10053500A8F0EA8EF0A428F8E435F0F9EB8DF0A4E4
:1005450028E935F0F9E433CA8FF0A429F9EA35F042
:10055500FAEBF88EF0A429F9EA35F0FAE433FBEC6E
:100565008DF0A429F9EA35F0FAE43BFBE88FF0A415
:100575002AFAEB35F0FBE433CCFD8EF0A42AFAEB36
:1005850035F0FBE43CFCED8FF0A42BFBEC35F0FCE7
:1005950020E7031205CC0206A4AA82AB83A2F73397
:1005A50092D1F5826002D2F7ACF0E58124F9F8E644
:1005B500FD08E6FE0886F008E6A2F73392D5F58336
:0705C5006002D2F7AFF02243
:06003800E478FFF6D8FD9C
:1005CC007804EC7011E58224F8500AF582E4C9CA6B
:1005DC00CBFCD8EF22EC7820058220E713D58201E2
:1005EC0022C3E933F9EA33FAEB33FBEC33FCD8EAF8
:0305FC0015822243
:100016007900E94400601B7A009008F6780175A023
:1000260000E493F2A308B8000205A0D9F4DAF27549
:02003600A0FF29
:10003E007800E84400600A790175A000E4F309D85D
:10004E00FC7800E84400600C7900900001E4F0A315
:04005E00D8FCD9FAF7
:1005FF0012059E7900E583B58202800D5003120625
:10060F00F3E583C3958212081BE5D0C465D020E1C2
:10061F0017EA2DFAEB3EFBEC3FFC50097401120870
:10062F001BEC4480FC0206A4C3EA9DFAEB9EFBEC94
:10063F009FFC500FC3E499F9E49AFAE49BFBE49C06
:10064F00FCB2D11205CC0206A412085E700AE58234
:10065F00458345F0700122E430D112F4700BE5F0C0
:10066F00F47006E58330E7012290800022700AE5DE
:10067F00F07006E58320E70122907FFF22AC83AB69
:10068F00827A007900748E0207E47F8E1208D1F50A
:10069F008385F08222B98003EA13B34010EA240164
:1006AF00FAE43BFBE43CFC50047C800582BC000E6A
:1006BF00BB000BBA0008E4F5F0F583F58222A2D156
:1006CF00E582138CF092F78B838A8222E4F583F50F
:1006DF008275F080F4A2D11322E4F583F58275F0D0
:1006EF00C0747F22E582C583F582A2D133A2D59251
:1006FF00D11392D5ECCFFCEBCEFBEACDFA2212054B
:10070F009E30D502B2D1BF0009BC00030206E80239
:10071F0006DBBC00030206C5E583B4FF0BE582B41C
:10072F00FF030206E80206C5E582B4FF030206DBFB
:10073F00C395835007247F400B0206C524801450B5
:10074F00030206DBF582C3ED9AEE9BEF9C40111579
:10075F0082C3EA33F9EB33FAEC33FBE433FC800565
:10076F00E4CCCBCAF9C08275F019C3E99DEA9EEBC0
:10077F009FEC9400D5F002802D400EE99DF9EA9E82
:10078F00FAEB9FFBEC9400FCC3B3E833F8E582333C
:10079F00F582E58333F583C3E933F9EA33FAEB33B3
:1007AF00FBEC33FC80C4B3E4F938FAE43582FBE4A4
:1007BF003583FCD082500405827C801205CC020662
:0107CF00BC6D
:0D0009007581201208B9E58260030200062F
:1007D000E4AC82FBFAF97486020811FCABF0AA8340
:1007E000A982749EF582C2D1EC30E716D2D1E9F429
:1007F0002401F9EAF43400FAEBF43400FBECF434AD
:1008000000FC1205CC0206A4FCABF0AA83A98274FA
:100810009EC2D1F5821205CC0206A46040F8258262
:10082000500274FFF582E824F8501ECCCBCAF9E4DC
:10083000CC24F85014CBCAF9E4CB24F8500BCAF9F5
:10084000E4CA24F8500379002224086010F8C3ECAD
:1008500013FCEB13FBEA13FAE913F9D8F12212089F
:10086000BDC3749E95824039790012081B30D12691
:10087000E9F42401F582EAF43400F583EBF4340062
:10088000F5F0ECF43400700AE582458345F0700120
:1008900022E430E70F22EC20E71489828A838BF070
:1008A0002230D10AE4F582F583F5F074802274FFDA
:1008B000F582F583F5F0747F2275820022AA82AB5F
:1008C00083A2F73392D1F5826002D2F7ACF0227F97
:1008D0009E1208BD30D1030206C5C3EF95825009B0
:1008E00074FFF5F0F583F58222790012081B8982E6
:0608F0008A838BF0EC226C
:00000001FF
