:03000000020006F5
:03005F0002000399
:030003000203D61F
:10006200AE82AF83EE4F601B7C947D00EC24FFFADE
:10007200ED34FFFB8A048B05EA4B70F01EBEFF01D4
:100082001F80E12285820885830985F00AF50B85A8
:10009200080C85090D850A0E850B0FAA0EE50F3394
:1000A20095E030E744850882850983850AF0E50BEF
:1000B2001205781205ACAC82AD83AEF0FFE4C0E06D
:1000C200C0E07480C0E0743FC0E08C828D838EF00B
:1000D200EF120410AC82AD83AEF0FFE58124FCF593
:1000E200818C828D838EF0EF22850882850983853B
:1000F2000AF0E50B1205780205AC000000000022B0
:10010200D2941200FCD2950200FCD2941200FCD2CE
:10011200951200FCC2941200FCC2950200FCC2942B
:100122001200FCD2951200FCD2940200FCD295126D
:1001320000FC7F00D294309408BFFF0050030F8070
:10014200F3C2950200FCAF827E008F05ED2DFFC247
:1001520095C007C0061200FCA2D792941200FCD2EE
:10016200951200FCD006D0070EBE080040DCC295F6
:100172001200FCD2940200FC7F00C295C00712005C
:10018200FCD2941200FCD0077E00BE08005025C0AD
:1001920007C0061200FCD2951200FCD006D0073030
:1001A20094047D0180027D008F04EC2CFC4DFFC283
:1001B200950E80D6C0071200FCD0078F8222AF8234
:1001C200C00712010C75828012014812012FD0075C
:1001D2008F8212014812012F8510821201481201EA
:1001E2002F020120AF82C00712010C75828012011A
:1001F2004812012FD0078F8212014812012F1201DB
:100202000C75828112014812012F12017AAF82C04D
:1002120007120120D0078F8222751000758200021A
:1002220001C002021BAC82AD83AEF0FFC004C00568
:10023200C006C00790851F75F06B743F12041BAC9B
:1002420082AD83AEF0FFE58124FCF581C004C005D8
:10025200C006C00790BC2075F0BE744512062DACD6
:1002620082AD83AEF0FFE58124FCF581E4C0E0C0FD
:10027200E07480C0E0743FC0E08C828D838EF0EF2A
:10028200120410AC82AD83AEF0FFE58124FCF5814F
:10029200E4C0E0C0E0C0E0743FC0E08C828D838E99
:1002A200F0EF12051FAC82AD83AEF0FFE58124FCB6
:1002B200F5818C828D838EF0EF1200861205B9AE25
:1002C20082AF83758200C007C0061201E6AD827C50
:1002D20000747F5DFA4302108A10758200C005C067
:1002E200041201C0D004D005D006D0078E1075824A
:1002F200FEC005C0041201C0D004D0058D10758265
:1003020000C005C0041201C0900002120062D004B5
:10031200D0054305A18D107582000201C0AF828510
:100322001182C0071206F0AB82AC83ADF0FEC003AF
:10033200C004C005C00690A2B475F0117440120446
:100342001BAB82AC83ADF0FEE58124FCF58174CD5C
:10035200C0E014C0E0C0E07442C0E08B828C838DA8
:10036200F0EE12051FAB82AC83ADF0FEE58124FCFA
:10037200F5818B828C838DF0EE1205B9AD82AE834E
:10038200D007EF2F25E0FF2406F582751000C00785
:10039200C006C0051201C0D005D006D00774072FD1
:1003A200F582751000C007C006C0051201C0D00555
:1003B200D006D00774082FF5828D10C007C006C082
:1003C200051201C0D005D006D00774092FF5828E20
:1003D200100201C012010212022490000075F048BE
:1003E20074421202277E007F008E11758201C007BF
:1003F200C00612031F90000A120062D006D0070E38
:10040200BE00010FC374B49EE49F50DD80D7A88163
:100412001818C6B2E7C602051F1204BEBC000302CA
:1004220005E5EF60FA30D502B2D1E583B4FF0302ED
:1004320005FBE582B4FF030205FB25834007248206
:10044200400B0205E524831450030205FBF582EA02
:100452008DF0A4A8F0EA8EF0A428F8E435F0F9EBC8
:100462008DF0A428E935F0F9E433CA8FF0A429F914
:10047200EA35F0FAEBF88EF0A429F9EA35F0FAE45D
:1004820033FBEC8DF0A429F9EA35F0FAE43BFBE802
:100492008FF0A42AFAEB35F0FBE433CCFD8EF0A406
:1004A2002AFAEB35F0FBE43CFCED8FF0A42BFBECDD
:1004B20035F0FC20E7031204EC0205C4AA82AB83E8
:1004C200A2F73392D1F5826002D2F7ACF0E5812433
:1004D200F9F8E6FD08E6FE0886F008E6A2F7339290
:0A04E200D5F5836002D2F7AFF022D7
:06003500E478FFF6D8FD9F
:1004EC007804EC7011E58224F8500AF582E4C9CA4C
:1004FC00CBFCD8EF22EC7820058220E713D58201C3
:10050C0022C3E933F9EA33FAEB33FBEC33FCD8EAD8
:03051C0015822223
:100013007900E94400601B7A00900816780175A006
:1000230000E493F2A308B8000205A0D9F4DAF2754C
:02003300A0FF2C
:10003B007800E84400600A790175A000E4F309D860
:10004B00FC7800E84400600C7900900001E4F0A318
:04005B00D8FCD9FAFA
:10051F001204BE7900E583B58202800D50031206E6
:10052F0013E583C3958212073BE5D0C465D020E164
:10053F0017EA2DFAEB3EFBEC3FFC50097401120752
:10054F003BEC4480FC0205C4C3EA9DFAEB9EFBEC36
:10055F009FFC500FC3E499F9E49AFAE49BFBE49CE7
:10056F00FCB2D11204EC0205C412077E700AE582B8
:10057F00458345F0700122E430D112F4700BE5F0A1
:10058F00F47006E58330E7012290800022700AE5BF
:10059F00F07006E58320E70122907FFF22AC83AB4A
:1005AF00827A007900748E0207047F8E1207F1F5AC
:1005BF008385F08222B98003EA13B34010EA240145
:1005CF00FAE43BFBE43CFC50047C800582BC000E4B
:1005DF00BB000BBA0008E4F5F0F583F58222A2D137
:1005EF00E582138CF092F78B838A8222E4F583F5F0
:1005FF008275F080F4A2D11322E4F583F58275F0B1
:10060F00C0747F22E582C583F582A2D133A2D59231
:10061F00D11392D5ECCFFCEBCEFBEACDFA2212042C
:10062F00BE30D502B2D1BF0009BC000302060802DA
:10063F0005FBBC00030205E5E583B4FF0BE582B4BF
:10064F00FF030206080205E5E582B4FF030205FB7E
:10065F00C395835007247F400B0205E52480145077
:10066F00030205FBF582C3ED9AEE9BEF9C4011153B
:10067F0082C3EA33F9EB33FAEC33FBE433FC800546
:10068F00E4CCCBCAF9C08275F019C3E99DEA9EEBA1
:10069F009FEC9400D5F002802D400EE99DF9EA9E63
:1006AF00FAEB9FFBEC9400FCC3B3E833F8E582331D
:1006BF00F582E58333F583C3E933F9EA33FAEB3394
:1006CF00FBEC33FC80C4B3E4F938FAE43582FBE485
:1006DF003583FCD082500405827C801204EC020525
:0106EF00DC2E
:0D0006007581111207D9E582600302000325
:1006F000E4AC82FBFAF97486020731FCABF0AA8302
:10070000A982749EF582C2D1EC30E716D2D1E9F409
:100710002401F9EAF43400FAEBF43400FBECF4348D
:1007200000FC1204EC0205C4FCABF0AA83A982749D
:100730009EC2D1F5821204EC0205C46040F8258205
:10074000500274FFF582E824F8501ECCCBCAF9E4BD
:10075000CC24F85014CBCAF9E4CB24F8500BCAF9D6
:10076000E4CA24F8500379002224086010F8C3EC8E
:1007700013FCEB13FBEA13FAE913F9D8F122120781
:10078000DDC3749E95824039790012073B30D12633
:10079000E9F42401F582EAF43400F583EBF4340043
:1007A000F5F0ECF43400700AE582458345F0700101
:1007B00022E430E70F22EC20E71489828A838BF051
:1007C0002230D10AE4F582F583F5F074802274FFBB
:1007D000F582F583F5F0747F2275820022AA82AB40
:1007E00083A2F73392D1F5826002D2F7ACF0227F78
:1007F0009E1207DD30D1030205E5C3EF9582500953
:1008000074FFF5F0F583F58222790012073B8982A7
:060810008A838BF0EC224C
:00000001FF
