:03000000020006F5
:10005F00750800750900750A00750BDF750CDF75E3
:0E006F000D00750E00750F00751000020003E5
:03000300020113E4
:10007D0075210074F82521405FE52175F006A4FD7A
:10008D00AEF024B1FBEE3401FC8B828C83E493FA49
:10009D00A3E493EA2408F987078B828C83A3A3E456
:1000AD0093FBA3E493FC7A00EFB50328EAB504248F
:1000BD00E52125212411F9ED24B1FDEE3401FE8D4C
:1000CD00828E83A3A3A3A3E493FEA3E493FFA706C9
:1000DD0009A707190521809B90001175F040227E1C
:1000ED00007F007C647D00EC24FFFAED34FFFB8A79
:1000FD00048B05EA4B70F00EBE00010FC3EE946445
:10010D00EF940040DE2212007DAD82AE83AFF07C15
:10011D0000BC0800400302018FEC75F002A42DFA1B
:10012D00EE35F0F98F038A8289838BF0120191FAF3
:10013D00A3120191FBC374089AE49B500302018B37
:10014D00EA240A83F582EA240D83F583E4738B6D2B
:10015D007175797D8185890101010101010101011E
:10016D00C280801AC2818016C2828012C283800E24
:10017D00C284800AC2858006C2868002C2870C02B4
:04018D00011E80FED1
:1001B1000300EF0001000300BF00020003007F0005
:1001C10003000300DF0004000400EF000500040049
:1001D100BF00080004007F0007000400DF000600E4
:06003500E478FFF6D8FD9F
:100013007900E94400601B7A009001E1780175A042
:1000230000E493F2A308B8000205A0D9F4DAF2754C
:02003300A0FF2C
:10003B007800E84400600A790175A000E4F309D860
:10004B00FC7800E84400600C7900900001E4F0A318
:04005B00D8FCD9FAFA
:0D0006007581211201ADE582600302000347
:1001910020F71430F6148883A88220F507E6A88397
:1001A10075830022E280F7E49322E0227582002227
:00000001FF
