:03000000020006F5
:03005F0002000399
:030003000200896F
:100062007E007F007C647D00EC24FFFAED34FFFB10
:100072008A048B05EA4B70F00EBE00010FC3EE94AA
:1000820064EF940040DE227EFE7F007C7F7D007A5A
:10009200007B00EEF58025E0FEEF33FFC007C006CF
:1000A200C005C004C003C002120062D002D003D057
:1000B20004D005D006D0070ABA00010BC3EA9407A0
:1000C200EB940040CE7E007F008C80EDC313CC13F6
:1000D200CCFDC007C006C005C004120062D004D027
:1000E20005D006D0070EBE00010FC3EE9407EF94B1
:0500F2000040D68092E1
:06003500E478FFF6D8FD9F
:100013007900E94400601B7A009000FB780175A029
:1000230000E493F2A308B8000205A0D9F4DAF2754C
:02003300A0FF2C
:10003B007800E84400600A790175A000E4F309D860
:10004B00FC7800E84400600C7900900001E4F0A318
:04005B00D8FCD9FAFA
:0D0006007581071200F7E582600302000318
:0400F70075820022EC
:00000001FF
