:04000000020029329F
:01000B0032C2
:0100130032BA
:01001B0032B2
:03002300020106D1
:0300820002002653
:030026000200884D
:10008500B28722758920758DFD758BFDD28ED29C28
:10009500C29FD29ED2AFD2AC7401B509FB120085C6
:1000A50074D0250840030200FEE50824C850030269
:1000B50000FEE50824D0FF240A83F582EF240C8393
:1000C500F583E473F5D9DDE1E5E9EDF10000000024
:1000D50000000000C2808021C281801DC28280197B
:1000E500C2838015C2848011C285800DC2868009B5
:1000F500AE807F0043067F8E80D2AC75090002007A
:0C0105009DC298859908C2AC75090132B2
:06005800E478FFF6D8FD7C
:100036007900E94400601B7A00900115780175A0EB
:1000460000E493F2A308B8000205A0D9F4DAF27529
:02005600A0FF09
:10005E007800E84400600A790175A000E4F309D83D
:10006E00FC7800E84400600C7900900001E4F0A3F5
:04007E00D8FCD9FAD7
:0D002900758109120111E5826003020026B5
:0401110075820022D1
:00000001FF
