:0400000002001132B7
:03000B0002016689
:0D006A00E4F50BF50C750D01F50E02000E0E
:03000E00020106E6
:10007700C37408950BE4950C5019E50D450EB401B2
:1000870000E433FF8F0D3395E0F50E7580FFE4F53F
:100097000BF50CE50D450E6007E58025E0FF8005B3
:1000A700E580C313FF8F80050BE4B50B02050C2217
:1000B70085820F7E00C3EE950F5030751040751185
:1000C7001FE4F512F513E51024FFF8E51134FFF9E5
:1000D700E51234FFFFE51334FFFD881089118F12F5
:1000E7008D13E8494F4D70DE0E80CA120077C28C1F
:1000F7002285088C85098AD28C850A820200B77509
:100107008901D2AFD2A97F00BF640050F9EF9001F7
:100117007793FE8F05ED04FC3395E0FBEC2477F530
:1001270082EB3401F583E49375F007A42E14FE9057
:1001370001DD93F508EE9001F993F50974022DFEA0
:100147003395E0FCEE2477F582EC3401F583E493F4
:10015700F50A74032DFFC0071200F8D00780A9C263
:0C0167008CB2B785088C85098AD28C32D6
:100177000602030502010302020502020103020649
:10018700020105020106020403020205020106023A
:100197000105020203020201020106010105020133
:1001A700030201020204020203030201050202051F
:1001B7000201060201030202020202010204050211
:1001C700030302010202010102010601010102010A
:1001D700050106000000F2F3F5F5F6F7F8F9F9FA6C
:1001E700FAFBFBFCFCFCFDFDFDFDFEFEFEFEFEFE3C
:1001F700FEFF42C117B6D0D1B621E18CD868E95BC2
:0E0207008FEE446BB4F42D4777A2B6DAFA16E8
:06004000E478FFF6D8FD94
:10001E007900E94400601B7A00900215780175A002
:10002E0000E493F2A308B8000205A0D9F4DAF27541
:02003E00A0FF21
:100046007800E84400600A790175A000E4F309D855
:10005600FC7800E84400600C7900900001E4F0A30D
:04006600D8FCD9FAEF
:0D001100758113120173E582600302000E79
:04017300758200226F
:00000001FF
