:03000000020006F5
:10005F0075102075112075122075132075142075D9
:10006F001520751620751720751820751920751A0B
:10007F0020751B20751C20751D20751E20751F20D7
:10008F007520007521207522207523207524207579
:10009F002520752620752720752820752920752A7B
:1000AF0020752B20752C20752D20752E20752F2057
:0F00BF0075302075312075322075330002000333
:030003000201E017
:1000CE00E582C313FFEF14FF70FB22AF82EF14FF24
:1000DE00601E7582FAC0071200CE7582FA1200CE2B
:1000EE007582FA1200CE7582FA1200CED00780DD2C
:1000FE0022AF82758205C0071200D9D007C290C206
:10010E0092C29100D2908FA0C29022AF82758205CA
:10011E00C0071200D9D007C290D292C29100D290DD
:10012E008FA0C290C29222AF82BF100040088F06ED
:10013E0074B02EFE800474802FFE8E821200FF8516
:10014E003482020119E582C454F0FF7E008F050F40
:10015E00EE2535FAE43536FBAC378A828B838CF08C
:10016E00120AC8F5348D82C007C006120135D006BA
:10017E00D0070EBE100040D52275820F1200D97521
:10018E0082381200FF7582381200FF758238120015
:10019E00FF7582081200FF75820C1200FF75820136
:1001AE001200FF7582041200FF75820C0200FFAF71
:1001BE008253380153070FE53860098F057E0043DF
:1001CE0005C08D074307808F821200FF75820F02D4
:1001DE0000FF12018775820F1200D97403C0E074FC
:1001EE000BC0E07480C0E07421C0E07400C0E07405
:1001FE0040C0E0120301E58124FAF58175352175C1
:10020E0036007537407582001201537414C0E074C5
:10021E000BC0E07480C0E07410C0E07400C0E074E5
:10022E0040C0E0120301E58124FAF58175351075A1
:10023E00360075374075820112015375380075828C
:06024E00001201BD80FE5C
:100B030020676F676F20796F796F20202020202066
:100B1300007A68616E6773616920697320676F6F1C
:060B23006420626F7900FE
:06003500E478FFF6D8FD9F
:100013007900E94400601B7A00900B34780175A0E5
:1000230000E493F2A308B8000205A0D9F4DAF2754C
:02003300A0FF2C
:10003B007800E84400600A790175A000E4F309D860
:10004B00FC7800E84400600C7900900001E4F0A318
:04005B00D8FCD9FAFA
:10025400C040858140C082058105810581E5402437
:10026400FBF8A9400909E6F70809E6F70809E6F7E3
:10027400A840080886820886830886F0120AC8FA0D
:10028400A3120AC8FBA3120AC8FF74012AFCE43BA8
:10029400FD8F06A840080886820886830886F0EC4D
:1002A400120AE8A3ED120AE8A3EE120AE88A828B86
:1002B400838FF0A84008E6120AE8854081D04022E6
:1002C40085823D85833E85F03F754E3D754F0075B3
:1002D4005040853951853A52853B53853C549002B0
:1002E400541203F3AE82AF83AB3DAC3EAD3F8B8281
:1002F4008C838DF0E4120AE88E828F8322C04085BD
:100304008140E54024F8FF8F54E54024FBFF8F4EE5
:10031400754F00755040E54024F8F8865108865220
:100324000886539002541203F3AE82AF83E540244F
:10033400FBF886030886040886058B828C838DF07F
:10034400E4120AE88E828F83D04022AF82C044C078
:1003540045C04612035C8007C042C0438F82221509
:100364008115811581054CE4B54C02054D22AF82FF
:1003740074302FFF24C6501174072FFFE541600924
:100384008F057E004305208D078F8202034FE5828F
:10039400FFC4540FF582C007120372D007740F5FB5
:1003A400F582020372858269AB47AC48AD49AE4A17
:1003B400AA4B756B208A07EF2FF56AEE235401458B
:1003C4006AFAEB2BFBEC33FCED33FDEE33FEC3EAB0
:1003D40095694008EAC39569FA430301E56B14FF84
:1003E4008F6B70D18B478C488D498E4A8A4B2285FE
:1003F4008242858343854E44854F45855046E4F5C6
:100404004CF54DAD51AE52AF538D828E838FF012A9
:100414000AC8FC74012DF551E43EF5528F53ECFFEC
:100424007003020AA9BF25028003020AA17E007D8F
:10043400008E558E567A007B008E577C008E588E27
:100444005E7559FF85515F855260855361855F8272
:100454008560838561F0120AC8F562A385825F8591
:100464008360855F518560528561537425B5620848
:1004740085628212034F808B74D025625039E56205
:1004840024C6403374FFB5591AE55EF56375F00A66
:10049400A4F563E562F564256324D0F55E70AE7D52
:1004A4000180AAE55975F00AA4F564E562F56325AF
:1004B4006424D0F5598096742EB5620A74FFB55938
:1004C4008C7559008087749F2562500EE5622485DF
:1004D40040085362DF75410180037541007420B503
:1004E400620302057C742BB56203020576742DB594
:1004F400620280797442B562030205827443B56274
:100504000302058D7444B5620302079E7446B56206
:10051400030207B47448B562030204517449B56216
:100524000302079E744AB56203020451744CB56217
:10053400028050744FB562030207A57450B562037C
:100544000206E97453B5620280767454B5620302FC
:1005540004517455B562030207AA7458B5620302C4
:1005640007AF745AB562030204510207B87E010250
:1005740004517555010204517556010204517B0161
:10058400020451755701020451EB600AE55414F951
:1005940089548764800DE55424FEF563856354A96A
:1005A400638764856482C006C005C004C003C002BA
:1005B40012034FD002D003D004D005D0060207D7CF
:1005C400E55424FDF564856454A964875F09876054
:1005D4000987611919855F47856048856149855F89
:1005E400828560838561F0C006C005C004C003C075
:1005F40002120AB085825F858360D002D003D004E2
:10060400D005D006855F6474FFB55903856459EE3F
:100614007036C3E564955E502FE55EC39564F5635B
:1006240085635F1563E55F601C758220C006C005A5
:10063400C004C003C00212034FD002D003D004D0C0
:1006440005D00680DB85635E8559638547828548CE
:10065400838549F0120AC8F55F855F5B604885634E
:100664005F1563C37480855FF063F08095F0503646
:10067400855B82C006C005C004C003C00212034FDC
:10068400D002D003D004D005D00685475F854860EA
:10069400854961055FE4B55F020560855F47856054
:1006A4004885614980A5EE70030207D7C3E56495C8
:1006B4005E40030207D7E55EC39564F56485646311
:1006C4001564E56370030207D4758220C006C00573
:1006D400C004C003C00212034FD002D003D004D020
:1006E40005D00680D8E55424FDF563856354A963D9
:1006F400875F0987600987611919855F47856048A5
:1007040085614985495C7480255C50057563438027
:100714001974A0255C5005756350800E74C0255C67
:1007240050057563498003756358856382C006C0AC
:1007340005C004C003C00212034F75823A12034F6E
:1007440075823012034F75827812034FD002D003A2
:10075400D004D005D0067449B5630280217450B525
:100764006302801A854882C006C005C004C003C065
:1007740002120392D002D003D004D005D0068547DC
:1007840082C006C005C004C003C002120392D00296
:10079400D003D004D005D00680397A0175580A8078
:1007A40032755808802D75580A8028755810802392
:1007B4007C01801F856282C006C005C004C003C0DE
:1007C4000212034FD002D003D004D005D006800318
:1007D40085645EEC6068E55424FCFC8C548C0187D1
:1007E400650987660987670987681919198565473F
:1007F40085664885674985684A75472975480B7534
:10080400498085476585486685496774012565F58E
:100814005FE43566F560856761855F478560488577
:1008240061498565828566838567F0120AC8FC8CF8
:1008340065700302040785658212034F80C4E5587E
:100844007003020407EB603FE55414F989548704EC
:100854008C657566007567007568008565478566F3
:100864004885674985684AEA60030208F485476554
:1008740075660075670075680085654785664885F7
:10088400674985684A8069E5576025E55424FCFC7E
:100894008C548C01876509876609876709876819FD
:1008A400191985654785664885674985684A804082
:1008B400E55424FEFC8C548C018703098704198BAE
:1008C40065ECF5663395E0F567F5688565478566FB
:1008D4004885674985684AEA70168547658548668C
:1008E400F567F56885654785664885674985684A7B
:1008F400EA602AE54A30E723C3E49547F565E495C1
:1009040048F566E49549F567E4954AF568856547D1
:1009140085664885674985684A80027A007C017942
:10092400717B00754B00855882C006C005C004C0A9
:1009340003C002C0011203A9D001D002D003D00425
:10094400D005D006EC7010C003E54BC4F565E7454F
:1009540065F719D0038002A74B0BECB40100E43314
:10096400FCE54745484549454A70B8895D8B5AE5D9
:100974005E7003755E01ED702CEE7029855E65ABCB
:100984005A0BC3EB9565501A758220C006C005C08A
:1009940004C00212034FD002D004D005D00615655E
:1009A40080DD85655EEA601675822DC006C005C0CF
:1009B4000412034FD004D005D006155E8036E55AE4
:1009C4006032E555601675822BC006C005C004125E
:1009D400034FD004D005D006155E8018E556601488
:1009E400758220C006C005C00412034FD004D00590
:1009F400D006155EEE7034AB5E8B021BC3E55A9ACB
:100A0400503CED600875653075660080067565209C
:100A1400756600856582C006C005C004C003120364
:100A24004FD003D004D005D00680CEC3E55A955EDE
:100A34005008E55EC3955AFD80067D0080028B0553
:100A4400A95DAB5A8B021BEA6036ECB40100E433B7
:100A5400FC700A09E7C4540FFA8A4B8007870274B2
:100A64000F5AF54B854B82C006C005C004C003C0B5
:100A740001120372D001D003D004D005D00680C483
:100A8400EE70030204078D068E051EED700302044A
:100A940007758220C00612034FD00680EB8F8212A6
:0C0AA400034F020407854C82854D83221D
:0B0B29003C4E4F20464C4F41543E0014
:100AB000AA82AB83120AC86003A380F8C3E5829AB6
:080AC000F582E5839BF583221A
:0D000600758171120AE4E5826003020003B7
:100AC80020F71430F6148883A88220F507E6A88357
:100AD80075830022E280F7E49322E02275820022E7
:100AE80020F71130F6138883A88220F509F6A88329
:0B0AF8007583002280FEF280F5F022E2
:00000001FF
