:03000000020006F5
:10005F0075087F750900750ABF750B00750CDF7584
:10006F000D00750EEF750F007510F77511007512F5
:10007F00FB7513007514FD7515007516FE751700C9
:10008F007518FF751900751AFFE4F51BF51CF51DA2
:10009F00F51EF51F752055F521752255F52375248D
:0B00AF00AAF5257526AAF5270200031C
:030003000200E315
:1000BA007E007F287C007D02EC4D601C8E028F033F
:1000CA00EA4B70068A068B0780071ABAFF011B8063
:1000DA00EF1CBCFF011D80E0227580FE7E007F00C0
:1000EA00C007C0061200BAD006D007E580FD25E099
:1000FA00F5800EBE00010FC3EE9408EF940040E0B5
:10010A0075807F7E007F00C007C0061200BAD00645
:10011A00D007E580C313F5800EBE00010FC3EE942D
:10012A0008EF940040E17580FE7E007F00C007C0A2
:10013A00061200BAD006D007E58025E0F580AC802B
:10014A007D004304018C800EBE00010FC3EE9408AB
:10015A00EF940040D875807F7E007F00C007C006FC
:10016A001200BAD006D007E580C313F580AC807DB3
:10017A00004304808C800EBE00010FC3EE9408EF8A
:10018A00940040D87E007F00C007C0061200BAD093
:10019A0006D007EE2EFCEF33FDEC2408F987800E1B
:1001AA00BE00010FC3EE9410EF940040DB0200E39F
:06003500E478FFF6D8FD9F
:100013007900E94400601B7A009001BE780175A065
:1000230000E493F2A308B8000205A0D9F4DAF2754C
:02003300A0FF2C
:10003B007800E84400600A790175A000E4F309D860
:10004B00FC7800E84400600C7900900001E4F0A318
:04005B00D8FCD9FAFA
:0D0006007581271201BAE582600302000334
:0401BA007582002228
:00000001FF
